{
  "_format": "hh-sol-artifact-1",
  "contractName": "LoanContract",
  "sourceName": "contracts/contracts2/Auction.sol",
  "abi": [
    {
      "anonymous": false,
      "inputs": [
        {
          "indexed": false,
          "internalType": "uint256",
          "name": "LPId",
          "type": "uint256"
        },
        {
          "indexed": false,
          "internalType": "address",
          "name": "LPProvider",
          "type": "address"
        },
        {
          "indexed": false,
          "internalType": "uint256",
          "name": "LoanAmount",
          "type": "uint256"
        },
        {
          "indexed": false,
          "internalType": "address",
          "name": "LoanTaker",
          "type": "address"
        }
      ],
      "name": "LoanProvided",
      "type": "event"
    },
    {
      "anonymous": false,
      "inputs": [
        {
          "indexed": false,
          "internalType": "uint256",
          "name": "LPId",
          "type": "uint256"
        },
        {
          "indexed": false,
          "internalType": "address",
          "name": "LoanTaker",
          "type": "address"
        },
        {
          "indexed": false,
          "internalType": "uint256",
          "name": "TotalRepayment",
          "type": "uint256"
        }
      ],
      "name": "LoanRepaid",
      "type": "event"
    },
    {
      "inputs": [
        {
          "internalType": "address",
          "name": "",
          "type": "address"
        }
      ],
      "name": "SPtoLP",
      "outputs": [
        {
          "internalType": "uint256",
          "name": "",
          "type": "uint256"
        }
      ],
      "stateMutability": "view",
      "type": "function"
    },
    {
      "inputs": [
        {
          "internalType": "address",
          "name": "_LPProvider",
          "type": "address"
        },
        {
          "internalType": "uint256",
          "name": "_rate",
          "type": "uint256"
        },
        {
          "internalType": "uint256",
          "name": "_LoanPrice",
          "type": "uint256"
        },
        {
          "internalType": "contract IERC20",
          "name": "token",
          "type": "address"
        }
      ],
      "name": "addLoanProvider",
      "outputs": [],
      "stateMutability": "nonpayable",
      "type": "function"
    },
    {
      "inputs": [
        {
          "internalType": "uint256",
          "name": "",
          "type": "uint256"
        }
      ],
      "name": "loanProviders",
      "outputs": [
        {
          "internalType": "uint256",
          "name": "LPId",
          "type": "uint256"
        },
        {
          "internalType": "address",
          "name": "LPProvider",
          "type": "address"
        },
        {
          "internalType": "uint256",
          "name": "rate",
          "type": "uint256"
        },
        {
          "internalType": "uint256",
          "name": "LoanPrice",
          "type": "uint256"
        },
        {
          "internalType": "uint256",
          "name": "startTime",
          "type": "uint256"
        },
        {
          "internalType": "bool",
          "name": "LoanActive",
          "type": "bool"
        },
        {
          "internalType": "address",
          "name": "LoanTaker",
          "type": "address"
        },
        {
          "internalType": "contract IERC20",
          "name": "collateral",
          "type": "address"
        }
      ],
      "stateMutability": "view",
      "type": "function"
    },
    {
      "inputs": [
        {
          "internalType": "uint256",
          "name": "_LPId",
          "type": "uint256"
        },
        {
          "internalType": "contract IERC20",
          "name": "_collateralToken",
          "type": "address"
        }
      ],
      "name": "provideLoan",
      "outputs": [],
      "stateMutability": "payable",
      "type": "function"
    },
    {
      "inputs": [],
      "name": "providerCount",
      "outputs": [
        {
          "internalType": "uint256",
          "name": "",
          "type": "uint256"
        }
      ],
      "stateMutability": "view",
      "type": "function"
    },
    {
      "inputs": [],
      "name": "repayLoan",
      "outputs": [],
      "stateMutability": "nonpayable",
      "type": "function"
    }
  ],
  "bytecode": "0x608060405234801561001057600080fd5b50610d31806100206000396000f3fe6080604052600436106100655760003560e01c8063788a430811610043578063788a4308146100cb578063f848d3fa146100f8578063f966ade71461017c57600080fd5b80631a69287a1461006a5780635d17ab831461007f57806374c832681461009f575b600080fd5b61007d6100783660046107ff565b610191565b005b34801561008b57600080fd5b5061007d61009a366004610850565b6103f3565b3480156100ab57600080fd5b506100b560025481565b6040516100c291906108bc565b60405180910390f35b3480156100d757600080fd5b506100b56100e63660046108ca565b60016020526000908152604090205481565b34801561010457600080fd5b506101686101133660046108eb565b600060208190529081526040902080546001820154600283015460038401546004850154600586015460069096015494956001600160a01b039485169593949293919260ff8216926101009092048116911688565b6040516100c2989796959493929190610931565b34801561018857600080fd5b5061007d610519565b60025482111580156101a35750600082115b6101c85760405162461bcd60e51b81526004016101bf906109df565b60405180910390fd5b60008281526020819052604090206005015460ff166101f95760405162461bcd60e51b81526004016101bf90610a23565b60008281526020819052604090206003015434146102295760405162461bcd60e51b81526004016101bf90610a67565b60008281526020819052604090819020600581018054600174ffffffffffffffffffffffffffffffffffffffffff199091166101003390810291909117821790925560068301805473ffffffffffffffffffffffffffffffffffffffff19166001600160a01b03878116918217909255919093015493517f23b872dd00000000000000000000000000000000000000000000000000000000815290936323b872dd936102dd93929116903490600401610a77565b6020604051808303816000875af11580156102fc573d6000803e3d6000fd5b505050506040513d601f19601f820116820180604052508101906103209190610ab2565b61033c5760405162461bcd60e51b81526004016101bf90610b07565b336000908152600160208181526040808420869055858452908390528083209091015490516001600160a01b0391909116913480156108fc02929091818181858888f19350505050158015610395573d6000803e3d6000fd5b50600082815260208190526040908190206001015490517f746adad77a10206aae929ac360b37df30855ea46313666622d20be56085541a5916103e79185916001600160a01b03169034903390610b17565b60405180910390a15050565b6002805490600061040383610b6b565b9091555050604080516101008082018352600280548084526001600160a01b039889166020808601918252858701998a52606086019889524260808701908152600060a0880181815260c089018281529a8e1660e08a019081529582529281905297909720955186559051600186018054918c1673ffffffffffffffffffffffffffffffffffffffff1992831617905598519285019290925595516003840155925160048301559151600582018054945188169093027fffffffffffffffffffffff0000000000000000000000000000000000000000ff9115159190911674ffffffffffffffffffffffffffffffffffffffffff1990941693909317929092179055905160069091018054919093169116179055565b33600090815260016020526040902054600254811180159061053b5750600081115b6105575760405162461bcd60e51b81526004016101bf906109df565b60008181526020819052604090206005015461010090046001600160a01b031633146105955760405162461bcd60e51b81526004016101bf90610be2565b60006105a082610744565b600083815260208190526040812060030154919250906105c1908390610bf2565b6000848152602081905260408082206001015490519293506001600160a01b03169183156108fc0291849190818181858888f1935050505015801561060a573d6000803e3d6000fd5b5060008381526020819052604090819020600681015460059091015491517fa9059cbb0000000000000000000000000000000000000000000000000000000081526001600160a01b0391821692839263a9059cbb92610676926101009004909116908690600401610c05565b6020604051808303816000875af1158015610695573d6000803e3d6000fd5b505050506040513d601f19601f820116820180604052508101906106b99190610ab2565b6106d55760405162461bcd60e51b81526004016101bf90610c81565b60008481526020819052604090819020600501805474ffffffffffffffffffffffffffffffffffffffffff19169055517f512d3e65b3e58c2187bb1872aa435dba5bd09c1c03823ba56ab70aac411e4a219061073690869033908690610c91565b60405180910390a150505050565b60008181526020819052604081206004015481906107629042610c9f565b600084815260208190526040902060028101546003909101549192509063bbf81e00908390610792908490610cb2565b61079c9190610cb2565b6107a69190610ce7565b949350505050565b805b81146107bb57600080fd5b50565b80356107c9816107ae565b92915050565b60006001600160a01b0382166107c9565b60006107c9826107cf565b6107b0816107e0565b80356107c9816107eb565b6000806040838503121561081557610815600080fd5b600061082185856107be565b9250506020610832858286016107f4565b9150509250929050565b6107b0816107cf565b80356107c98161083c565b6000806000806080858703121561086957610869600080fd5b60006108758787610845565b9450506020610886878288016107be565b9350506040610897878288016107be565b92505060606108a8878288016107f4565b91505092959194509250565b805b82525050565b602081016107c982846108b4565b6000602082840312156108df576108df600080fd5b60006107a68484610845565b60006020828403121561090057610900600080fd5b60006107a684846107be565b6108b6816107cf565b8015156108b6565b60006107c9826107e0565b6108b68161091d565b6101008101610940828b6108b4565b61094d602083018a61090c565b61095a60408301896108b4565b61096760608301886108b4565b61097460808301876108b4565b61098160a0830186610915565b61098e60c083018561090c565b61099b60e0830184610928565b9998505050505050505050565b601881526000602082017f496e76616c6964204c6f616e2050726f76696465722049440000000000000000815291505b5060200190565b602080825281016107c9816109a8565b601b81526000602082017f4c6f616e2050726f7669646572206973206e6f74206163746976650000000000815291506109d8565b602080825281016107c9816109ef565b601a81526000602082017f496e636f7272656374206c6f616e20616d6f756e742073656e74000000000000815291506109d8565b602080825281016107c981610a33565b60608101610a85828661090c565b610a92602083018561090c565b6107a660408301846108b4565b8015156107b0565b80516107c981610a9f565b600060208284031215610ac757610ac7600080fd5b60006107a68484610aa7565b601a81526000602082017f436f6c6c61746572616c207472616e73666572206661696c6564000000000000815291506109d8565b602080825281016107c981610ad3565b60808101610b2582876108b4565b610b32602083018661090c565b610b3f60408301856108b4565b610b4c606083018461090c565b95945050505050565b634e487b7160e01b600052601160045260246000fd5b60006000198203610b7e57610b7e610b55565b5060010190565b602681526000602082017f4f6e6c7920746865204c6f616e2054616b65722063616e20726570617920746881527f65206c6f616e0000000000000000000000000000000000000000000000000000602082015291505b5060400190565b602080825281016107c981610b85565b808201808211156107c9576107c9610b55565b60408101610c13828561090c565b610c2060208301846108b4565b9392505050565b602d81526000602082017f436f6c6c61746572616c20616e642072657061796d656e74207472616e73666581527f72206261636b206661696c65640000000000000000000000000000000000000060208201529150610bdb565b602080825281016107c981610c27565b60608101610a8582866108b4565b818103818111156107c9576107c9610b55565b818102808215838204851417610cca57610cca610b55565b5092915050565b634e487b7160e01b600052601260045260246000fd5b600082610cf657610cf6610cd1565b50049056fea26469706673582212201b3a9ef9a533a7619453417c9aebce4b23a19982168778d4cc10fdbbb64dba1464736f6c63430008140033",
  "linkReferences": {},
  "deployedLinkReferences": {}
}