{
  "_format": "hh-sol-artifact-1",
  "contractName": "NFTMarket",
  "sourceName": "contracts/contracts2/NFTMinting.sol",
  "abi": [
    {
      "inputs": [
        {
          "internalType": "string",
          "name": "_baseTokenURI",
          "type": "string"
        }
      ],
      "stateMutability": "nonpayable",
      "type": "constructor"
    },
    {
      "inputs": [
        {
          "internalType": "address",
          "name": "sender",
          "type": "address"
        },
        {
          "internalType": "uint256",
          "name": "tokenId",
          "type": "uint256"
        },
        {
          "internalType": "address",
          "name": "owner",
          "type": "address"
        }
      ],
      "name": "ERC721IncorrectOwner",
      "type": "error"
    },
    {
      "inputs": [
        {
          "internalType": "address",
          "name": "operator",
          "type": "address"
        },
        {
          "internalType": "uint256",
          "name": "tokenId",
          "type": "uint256"
        }
      ],
      "name": "ERC721InsufficientApproval",
      "type": "error"
    },
    {
      "inputs": [
        {
          "internalType": "address",
          "name": "approver",
          "type": "address"
        }
      ],
      "name": "ERC721InvalidApprover",
      "type": "error"
    },
    {
      "inputs": [
        {
          "internalType": "address",
          "name": "operator",
          "type": "address"
        }
      ],
      "name": "ERC721InvalidOperator",
      "type": "error"
    },
    {
      "inputs": [
        {
          "internalType": "address",
          "name": "owner",
          "type": "address"
        }
      ],
      "name": "ERC721InvalidOwner",
      "type": "error"
    },
    {
      "inputs": [
        {
          "internalType": "address",
          "name": "receiver",
          "type": "address"
        }
      ],
      "name": "ERC721InvalidReceiver",
      "type": "error"
    },
    {
      "inputs": [
        {
          "internalType": "address",
          "name": "sender",
          "type": "address"
        }
      ],
      "name": "ERC721InvalidSender",
      "type": "error"
    },
    {
      "inputs": [
        {
          "internalType": "uint256",
          "name": "tokenId",
          "type": "uint256"
        }
      ],
      "name": "ERC721NonexistentToken",
      "type": "error"
    },
    {
      "anonymous": false,
      "inputs": [
        {
          "indexed": true,
          "internalType": "address",
          "name": "owner",
          "type": "address"
        },
        {
          "indexed": true,
          "internalType": "address",
          "name": "approved",
          "type": "address"
        },
        {
          "indexed": true,
          "internalType": "uint256",
          "name": "tokenId",
          "type": "uint256"
        }
      ],
      "name": "Approval",
      "type": "event"
    },
    {
      "anonymous": false,
      "inputs": [
        {
          "indexed": true,
          "internalType": "address",
          "name": "owner",
          "type": "address"
        },
        {
          "indexed": true,
          "internalType": "address",
          "name": "operator",
          "type": "address"
        },
        {
          "indexed": false,
          "internalType": "bool",
          "name": "approved",
          "type": "bool"
        }
      ],
      "name": "ApprovalForAll",
      "type": "event"
    },
    {
      "anonymous": false,
      "inputs": [
        {
          "indexed": false,
          "internalType": "uint256",
          "name": "_fromTokenId",
          "type": "uint256"
        },
        {
          "indexed": false,
          "internalType": "uint256",
          "name": "_toTokenId",
          "type": "uint256"
        }
      ],
      "name": "BatchMetadataUpdate",
      "type": "event"
    },
    {
      "anonymous": false,
      "inputs": [
        {
          "indexed": false,
          "internalType": "uint256",
          "name": "_tokenId",
          "type": "uint256"
        }
      ],
      "name": "MetadataUpdate",
      "type": "event"
    },
    {
      "anonymous": false,
      "inputs": [
        {
          "indexed": true,
          "internalType": "address",
          "name": "from",
          "type": "address"
        },
        {
          "indexed": true,
          "internalType": "address",
          "name": "to",
          "type": "address"
        },
        {
          "indexed": true,
          "internalType": "uint256",
          "name": "tokenId",
          "type": "uint256"
        }
      ],
      "name": "Transfer",
      "type": "event"
    },
    {
      "inputs": [
        {
          "internalType": "address",
          "name": "to",
          "type": "address"
        },
        {
          "internalType": "uint256",
          "name": "tokenId",
          "type": "uint256"
        }
      ],
      "name": "approve",
      "outputs": [],
      "stateMutability": "nonpayable",
      "type": "function"
    },
    {
      "inputs": [
        {
          "internalType": "address",
          "name": "owner",
          "type": "address"
        }
      ],
      "name": "balanceOf",
      "outputs": [
        {
          "internalType": "uint256",
          "name": "",
          "type": "uint256"
        }
      ],
      "stateMutability": "view",
      "type": "function"
    },
    {
      "inputs": [
        {
          "internalType": "string",
          "name": "_tokenURI",
          "type": "string"
        },
        {
          "internalType": "uint256",
          "name": "_price",
          "type": "uint256"
        }
      ],
      "name": "createToken",
      "outputs": [
        {
          "internalType": "uint256",
          "name": "",
          "type": "uint256"
        }
      ],
      "stateMutability": "nonpayable",
      "type": "function"
    },
    {
      "inputs": [
        {
          "internalType": "uint256",
          "name": "tokenId",
          "type": "uint256"
        }
      ],
      "name": "getApproved",
      "outputs": [
        {
          "internalType": "address",
          "name": "",
          "type": "address"
        }
      ],
      "stateMutability": "view",
      "type": "function"
    },
    {
      "inputs": [
        {
          "internalType": "address",
          "name": "owner",
          "type": "address"
        },
        {
          "internalType": "address",
          "name": "operator",
          "type": "address"
        }
      ],
      "name": "isApprovedForAll",
      "outputs": [
        {
          "internalType": "bool",
          "name": "",
          "type": "bool"
        }
      ],
      "stateMutability": "view",
      "type": "function"
    },
    {
      "inputs": [],
      "name": "name",
      "outputs": [
        {
          "internalType": "string",
          "name": "",
          "type": "string"
        }
      ],
      "stateMutability": "view",
      "type": "function"
    },
    {
      "inputs": [
        {
          "internalType": "uint256",
          "name": "tokenId",
          "type": "uint256"
        }
      ],
      "name": "ownerOf",
      "outputs": [
        {
          "internalType": "address",
          "name": "",
          "type": "address"
        }
      ],
      "stateMutability": "view",
      "type": "function"
    },
    {
      "inputs": [
        {
          "internalType": "address",
          "name": "from",
          "type": "address"
        },
        {
          "internalType": "address",
          "name": "to",
          "type": "address"
        },
        {
          "internalType": "uint256",
          "name": "tokenId",
          "type": "uint256"
        }
      ],
      "name": "safeTransferFrom",
      "outputs": [],
      "stateMutability": "nonpayable",
      "type": "function"
    },
    {
      "inputs": [
        {
          "internalType": "address",
          "name": "from",
          "type": "address"
        },
        {
          "internalType": "address",
          "name": "to",
          "type": "address"
        },
        {
          "internalType": "uint256",
          "name": "tokenId",
          "type": "uint256"
        },
        {
          "internalType": "bytes",
          "name": "data",
          "type": "bytes"
        }
      ],
      "name": "safeTransferFrom",
      "outputs": [],
      "stateMutability": "nonpayable",
      "type": "function"
    },
    {
      "inputs": [
        {
          "internalType": "address",
          "name": "operator",
          "type": "address"
        },
        {
          "internalType": "bool",
          "name": "approved",
          "type": "bool"
        }
      ],
      "name": "setApprovalForAll",
      "outputs": [],
      "stateMutability": "nonpayable",
      "type": "function"
    },
    {
      "inputs": [
        {
          "internalType": "bytes4",
          "name": "interfaceId",
          "type": "bytes4"
        }
      ],
      "name": "supportsInterface",
      "outputs": [
        {
          "internalType": "bool",
          "name": "",
          "type": "bool"
        }
      ],
      "stateMutability": "view",
      "type": "function"
    },
    {
      "inputs": [],
      "name": "symbol",
      "outputs": [
        {
          "internalType": "string",
          "name": "",
          "type": "string"
        }
      ],
      "stateMutability": "view",
      "type": "function"
    },
    {
      "inputs": [
        {
          "internalType": "uint256",
          "name": "tokenId",
          "type": "uint256"
        }
      ],
      "name": "tokenURI",
      "outputs": [
        {
          "internalType": "string",
          "name": "",
          "type": "string"
        }
      ],
      "stateMutability": "view",
      "type": "function"
    },
    {
      "inputs": [
        {
          "internalType": "address",
          "name": "from",
          "type": "address"
        },
        {
          "internalType": "address",
          "name": "to",
          "type": "address"
        },
        {
          "internalType": "uint256",
          "name": "tokenId",
          "type": "uint256"
        }
      ],
      "name": "transferFrom",
      "outputs": [],
      "stateMutability": "nonpayable",
      "type": "function"
    }
  ],
  "bytecode": "0x60806040523480156200001157600080fd5b50604051620019d2380380620019d28339810160408190526200003491620001f8565b6040518060400160405280600a8152602001691391950813585c9ad95d60b21b8152506040518060400160405280600d81526020016c105b9d5c9859c813585c9ad95d609a1b81525081600090816200008e919062000336565b5060016200009d828262000336565b5050600a80546001600160a01b03191633179055506009620000c0828262000336565b505062000406565b634e487b7160e01b600052604160045260246000fd5b601f19601f83011681018181106001600160401b0382111715620001065762000106620000c8565b6040525050565b60006200011960405190565b9050620001278282620000de565b919050565b60006001600160401b03821115620001485762000148620000c8565b601f19601f83011660200192915050565b60005b83811015620001765781810151838201526020016200015c565b50506000910152565b60006200019662000190846200012c565b6200010d565b905082815260208101848484011115620001b357620001b3600080fd5b620001c084828562000159565b509392505050565b600082601f830112620001de57620001de600080fd5b8151620001f08482602086016200017f565b949350505050565b6000602082840312156200020f576200020f600080fd5b81516001600160401b038111156200022a576200022a600080fd5b620001f084828501620001c8565b634e487b7160e01b600052602260045260246000fd5b6002810460018216806200026357607f821691505b60208210810362000278576200027862000238565b50919050565b60006200028f6200028c8381565b90565b92915050565b620002a0836200027e565b815460001960089490940293841b1916921b91909117905550565b6000620002ca81848462000295565b505050565b81811015620002ee57620002e5600082620002bb565b600101620002cf565b5050565b601f821115620002ca576000818152602090206020601f850104810160208510156200031b5750805b6200032f6020601f860104830182620002cf565b5050505050565b81516001600160401b03811115620003525762000352620000c8565b6200035e82546200024e565b6200036b828285620002f2565b6020601f831160018114620003a25760008415620003895750858201515b600019600886021c1981166002860217865550620003fe565b600085815260208120601f198616915b82811015620003d45788850151825560209485019460019092019101620003b2565b86831015620003f15784890151600019601f89166008021c191682555b6001600288020188555050505b505050505050565b6115bc80620004166000396000f3fe608060405234801561001057600080fd5b50600436106100ea5760003560e01c806370a082311161008c578063a22cb46511610066578063a22cb465146101d6578063b88d4fde146101e9578063c87b56dd146101fc578063e985e9c51461020f57600080fd5b806370a082311461019b57806372b3b620146101bb57806395d89b41146101ce57600080fd5b8063095ea7b3116100c8578063095ea7b31461014d57806323b872dd1461016257806342842e0e146101755780636352211e1461018857600080fd5b806301ffc9a7146100ef57806306fdde0314610118578063081812fc1461012d575b600080fd5b6101026100fd366004610ed8565b61024b565b60405161010f9190610f03565b60405180910390f35b61012061028f565b60405161010f9190610f67565b61014061013b366004610f89565b610321565b60405161010f9190610fc4565b61016061015b366004610fe6565b61034a565b005b610160610170366004611023565b610359565b610160610183366004611023565b6103f2565b610140610196366004610f89565b610412565b6101ae6101a9366004611073565b61041d565b60405161010f919061109a565b6101ae6101c936600461119b565b61047e565b6101206104c3565b6101606101e43660046111ea565b6104d2565b6101606101f736600461121d565b6104dd565b61012061020a366004610f89565b6104f4565b61010261021d36600461129c565b6001600160a01b03918216600090815260056020908152604080832093909416825291909152205460ff1690565b60006001600160e01b031982167f49064906000000000000000000000000000000000000000000000000000000001480610289575061028982610605565b92915050565b60606000805461029e906112e5565b80601f01602080910402602001604051908101604052809291908181526020018280546102ca906112e5565b80156103175780601f106102ec57610100808354040283529160200191610317565b820191906000526020600020905b8154815290600101906020018083116102fa57829003601f168201915b5050505050905090565b600061032c826106a0565b506000828152600460205260409020546001600160a01b0316610289565b6103558282336106d8565b5050565b6001600160a01b03821661038c576000604051633250574960e11b81526004016103839190610fc4565b60405180910390fd5b60006103998383336106e5565b9050836001600160a01b0316816001600160a01b0316146103ec578382826040517f64283d7b00000000000000000000000000000000000000000000000000000000815260040161038393929190611311565b50505050565b61040d838383604051806020016040528060008152506104dd565b505050565b6000610289826106a0565b60006001600160a01b0382166104625760006040517f89c62b640000000000000000000000000000000000000000000000000000000081526004016103839190610fc4565b506001600160a01b031660009081526003602052604090205490565b600780546000918261048f8361134f565b90915550506007546104a133826107ed565b6104ab818561086b565b6000818152600b602052604090208390559392505050565b60606001805461029e906112e5565b6103553383836108bf565b6104e8848484610359565b6103ec84848484610972565b60606104ff826106a0565b5060008281526006602052604081208054610519906112e5565b80601f0160208091040260200160405190810160405280929190818152602001828054610545906112e5565b80156105925780601f1061056757610100808354040283529160200191610592565b820191906000526020600020905b81548152906001019060200180831161057557829003601f168201915b5050505050905060006105b060408051602081019091526000815290565b905080516000036105c2575092915050565b8151156105f45780826040516020016105dc92919061138b565b60405160208183030381529060405292505050919050565b6105fd84610a89565b949350505050565b60006001600160e01b031982167f80ac58cd00000000000000000000000000000000000000000000000000000000148061066857506001600160e01b031982167f5b5e139f00000000000000000000000000000000000000000000000000000000145b8061028957507f01ffc9a7000000000000000000000000000000000000000000000000000000006001600160e01b0319831614610289565b6000818152600260205260408120546001600160a01b0316806102895782604051637e27328960e01b8152600401610383919061109a565b61040d8383836001610afd565b6000828152600260205260408120546001600160a01b039081169083161561071257610712818486610c3f565b6001600160a01b038116156107505761072f600085600080610afd565b6001600160a01b038116600090815260036020526040902080546000190190555b6001600160a01b0385161561077f576001600160a01b0385166000908152600360205260409020805460010190555b600084815260026020526040808220805473ffffffffffffffffffffffffffffffffffffffff19166001600160a01b0389811691821790925591518793918516917fddf252ad1be2c89b69c2b068fc378daa952ba7f163c4a11628f55a4df523b3ef91a490505b9392505050565b6001600160a01b038216610817576000604051633250574960e11b81526004016103839190610fc4565b6000610825838360006106e5565b90506001600160a01b0381161561040d5760006040517f73c6ac6e0000000000000000000000000000000000000000000000000000000081526004016103839190610fc4565b60008281526006602052604090206108838282611437565b507ff8e1a15aba9398e019f0b49df1a4fde98ee17ae345cb5f6b5e2c27f5033e8ce7826040516108b3919061109a565b60405180910390a15050565b6001600160a01b03821661090157816040517f5b08ba180000000000000000000000000000000000000000000000000000000081526004016103839190610fc4565b6001600160a01b0383811660008181526005602090815260408083209487168084529490915290819020805460ff1916851515179055517f17307eab39ab6107e8899845ad3d59bd9653f200f220920489ca2b5937696c3190610965908590610f03565b60405180910390a3505050565b6001600160a01b0383163b156103ec57604051630a85bd0160e11b81526001600160a01b0384169063150b7a02906109b49033908890879087906004016114fb565b6020604051808303816000875af19250505080156109ef575060408051601f3d908101601f191682019092526109ec9181019061154a565b60015b610a4f573d808015610a1d576040519150601f19603f3d011682016040523d82523d6000602084013e610a22565b606091505b508051600003610a475783604051633250574960e11b81526004016103839190610fc4565b805181602001fd5b6001600160e01b03198116630a85bd0160e11b14610a825783604051633250574960e11b81526004016103839190610fc4565b5050505050565b6060610a94826106a0565b506000610aac60408051602081019091526000815290565b90506000815111610acc57604051806020016040528060008152506107e6565b80610ad684610cad565b604051602001610ae792919061138b565b6040516020818303038152906040529392505050565b8080610b1157506001600160a01b03821615155b15610c02576000610b21846106a0565b90506001600160a01b03831615801590610b4d5750826001600160a01b0316816001600160a01b031614155b8015610b7f57506001600160a01b0380821660009081526005602090815260408083209387168352929052205460ff16155b15610bb857826040517fa9fbf51f0000000000000000000000000000000000000000000000000000000081526004016103839190610fc4565b8115610c005783856001600160a01b0316826001600160a01b03167f8c5be1e5ebec7d5bd14f71427d1e84f3dd0314c0f7b2291e5b200ac8c7c3b92560405160405180910390a45b505b50506000908152600460205260409020805473ffffffffffffffffffffffffffffffffffffffff19166001600160a01b0392909216919091179055565b610c4a838383610d4e565b61040d576001600160a01b038316610c775780604051637e27328960e01b8152600401610383919061109a565b81816040517f177e802f00000000000000000000000000000000000000000000000000000000815260040161038392919061156b565b60606000610cba83610dd1565b600101905060008167ffffffffffffffff811115610cda57610cda6110a8565b6040519080825280601f01601f191660200182016040528015610d04576020820181803683370190505b5090508181016020015b600019017f3031323334353637383961626364656600000000000000000000000000000000600a86061a8153600a8504945084610d0e575b509392505050565b60006001600160a01b038316158015906105fd5750826001600160a01b0316846001600160a01b03161480610da857506001600160a01b0380851660009081526005602090815260408083209387168352929052205460ff165b806105fd5750506000908152600460205260409020546001600160a01b03908116911614919050565b6000807a184f03e93ff9f4daa797ed6e38ed64bf6a1f0100000000000000008310610e1a577a184f03e93ff9f4daa797ed6e38ed64bf6a1f010000000000000000830492506040015b6d04ee2d6d415b85acef81000000008310610e46576d04ee2d6d415b85acef8100000000830492506020015b662386f26fc100008310610e6457662386f26fc10000830492506010015b6305f5e1008310610e7c576305f5e100830492506008015b6127108310610e9057612710830492506004015b60648310610ea2576064830492506002015b600a83106102895760010192915050565b6001600160e01b031981165b8114610eca57600080fd5b50565b803561028981610eb3565b600060208284031215610eed57610eed600080fd5b60006105fd8484610ecd565b8015155b82525050565b602081016102898284610ef9565b60005b83811015610f2c578181015183820152602001610f14565b50506000910152565b6000610f3f825190565b808452602084019350610f56818560208601610f11565b601f01601f19169290920192915050565b602080825281016107e68184610f35565b80610ebf565b803561028981610f78565b600060208284031215610f9e57610f9e600080fd5b60006105fd8484610f7e565b60006001600160a01b038216610289565b610efd81610faa565b602081016102898284610fbb565b610ebf81610faa565b803561028981610fd2565b60008060408385031215610ffc57610ffc600080fd5b60006110088585610fdb565b925050602061101985828601610f7e565b9150509250929050565b60008060006060848603121561103b5761103b600080fd5b60006110478686610fdb565b935050602061105886828701610fdb565b925050604061106986828701610f7e565b9150509250925092565b60006020828403121561108857611088600080fd5b60006105fd8484610fdb565b80610efd565b602081016102898284611094565b634e487b7160e01b600052604160045260246000fd5b601f19601f830116810181811067ffffffffffffffff821117156110e4576110e46110a8565b6040525050565b60006110f660405190565b905061110282826110be565b919050565b600067ffffffffffffffff821115611121576111216110a8565b601f19601f83011660200192915050565b82818337506000910152565b600061115161114c84611107565b6110eb565b90508281526020810184848401111561116c5761116c600080fd5b610d46848285611132565b600082601f83011261118b5761118b600080fd5b81356105fd84826020860161113e565b600080604083850312156111b1576111b1600080fd5b823567ffffffffffffffff8111156111cb576111cb600080fd5b61100885828601611177565b801515610ebf565b8035610289816111d7565b6000806040838503121561120057611200600080fd5b600061120c8585610fdb565b9250506020611019858286016111df565b6000806000806080858703121561123657611236600080fd5b60006112428787610fdb565b945050602061125387828801610fdb565b935050604061126487828801610f7e565b925050606085013567ffffffffffffffff81111561128457611284600080fd5b61129087828801611177565b91505092959194509250565b600080604083850312156112b2576112b2600080fd5b60006112be8585610fdb565b925050602061101985828601610fdb565b634e487b7160e01b600052602260045260246000fd5b6002810460018216806112f957607f821691505b60208210810361130b5761130b6112cf565b50919050565b6060810161131f8286610fbb565b61132c6020830185611094565b6105fd6040830184610fbb565b634e487b7160e01b600052601160045260246000fd5b6000600019820361136257611362611339565b5060010190565b6000611373825190565b611381818560208601610f11565b9290920192915050565b60006113978285611369565b91506105fd8284611369565b60006102896113af8381565b90565b6113bb836113a3565b815460001960089490940293841b1916921b91909117905550565b600061040d8184846113b2565b81811015610355576113f66000826113d6565b6001016113e3565b601f82111561040d576000818152602090206020601f850104810160208510156114255750805b610a826020601f8601048301826113e3565b815167ffffffffffffffff811115611451576114516110a8565b61145b82546112e5565b6114668282856113fe565b6020601f83116001811461149a57600084156114825750858201515b600019600886021c19811660028602178655506114f3565b600085815260208120601f198616915b828110156114ca57888501518255602094850194600190920191016114aa565b868310156114e65784890151600019601f89166008021c191682555b6001600288020188555050505b505050505050565b608081016115098287610fbb565b6115166020830186610fbb565b6115236040830185611094565b81810360608301526115358184610f35565b9695505050505050565b805161028981610eb3565b60006020828403121561155f5761155f600080fd5b60006105fd848461153f565b604081016115798285610fbb565b6107e6602083018461109456fea264697066735822122078eaf931a4c162b7a1cffb0543d56c45c00430d02e5365406fb65c8aa2be8bc864736f6c63430008140033",
  "linkReferences": {},
  "deployedLinkReferences": {}
}